{
  "_format": "hh-sol-artifact-1",
  "contractName": "OrderBook",
  "sourceName": "contracts/OrderBook.sol",
  "abi": [
    {
      "inputs": [
        {
          "internalType": "address",
          "name": "_tokenManagerAddress",
          "type": "address"
        }
      ],
      "stateMutability": "nonpayable",
      "type": "constructor"
    },
    {
      "inputs": [
        {
          "internalType": "address",
          "name": "owner",
          "type": "address"
        }
      ],
      "name": "OwnableInvalidOwner",
      "type": "error"
    },
    {
      "inputs": [
        {
          "internalType": "address",
          "name": "account",
          "type": "address"
        }
      ],
      "name": "OwnableUnauthorizedAccount",
      "type": "error"
    },
    {
      "inputs": [],
      "name": "ReentrancyGuardReentrantCall",
      "type": "error"
    },
    {
      "anonymous": false,
      "inputs": [
        {
          "indexed": true,
          "internalType": "uint256",
          "name": "id",
          "type": "uint256"
        }
      ],
      "name": "OrderCancelled",
      "type": "event"
    },
    {
      "anonymous": false,
      "inputs": [
        {
          "indexed": true,
          "internalType": "uint256",
          "name": "id",
          "type": "uint256"
        },
        {
          "indexed": true,
          "internalType": "address",
          "name": "creator",
          "type": "address"
        },
        {
          "indexed": false,
          "internalType": "address",
          "name": "tokenToSell",
          "type": "address"
        },
        {
          "indexed": false,
          "internalType": "address",
          "name": "tokenToBuy",
          "type": "address"
        },
        {
          "indexed": false,
          "internalType": "uint256",
          "name": "sellAmount",
          "type": "uint256"
        },
        {
          "indexed": false,
          "internalType": "uint256",
          "name": "buyAmount",
          "type": "uint256"
        }
      ],
      "name": "OrderCreated",
      "type": "event"
    },
    {
      "anonymous": false,
      "inputs": [
        {
          "indexed": true,
          "internalType": "uint256",
          "name": "id",
          "type": "uint256"
        },
        {
          "indexed": true,
          "internalType": "address",
          "name": "executor",
          "type": "address"
        }
      ],
      "name": "OrderExecuted",
      "type": "event"
    },
    {
      "anonymous": false,
      "inputs": [
        {
          "indexed": true,
          "internalType": "address",
          "name": "previousOwner",
          "type": "address"
        },
        {
          "indexed": true,
          "internalType": "address",
          "name": "newOwner",
          "type": "address"
        }
      ],
      "name": "OwnershipTransferred",
      "type": "event"
    },
    {
      "inputs": [
        {
          "internalType": "uint256",
          "name": "_orderId",
          "type": "uint256"
        }
      ],
      "name": "cancelOrder",
      "outputs": [],
      "stateMutability": "nonpayable",
      "type": "function"
    },
    {
      "inputs": [
        {
          "internalType": "address",
          "name": "_tokenToSell",
          "type": "address"
        },
        {
          "internalType": "address",
          "name": "_tokenToBuy",
          "type": "address"
        },
        {
          "internalType": "uint256",
          "name": "_sellAmount",
          "type": "uint256"
        },
        {
          "internalType": "uint256",
          "name": "_buyAmount",
          "type": "uint256"
        }
      ],
      "name": "createOrder",
      "outputs": [
        {
          "internalType": "uint256",
          "name": "",
          "type": "uint256"
        }
      ],
      "stateMutability": "nonpayable",
      "type": "function"
    },
    {
      "inputs": [
        {
          "internalType": "uint256",
          "name": "_orderId",
          "type": "uint256"
        }
      ],
      "name": "deactivateOrder",
      "outputs": [],
      "stateMutability": "nonpayable",
      "type": "function"
    },
    {
      "inputs": [
        {
          "internalType": "uint256",
          "name": "_orderId",
          "type": "uint256"
        }
      ],
      "name": "moveTokensToTradeContract",
      "outputs": [],
      "stateMutability": "nonpayable",
      "type": "function"
    },
    {
      "inputs": [],
      "name": "orderCounter",
      "outputs": [
        {
          "internalType": "uint256",
          "name": "",
          "type": "uint256"
        }
      ],
      "stateMutability": "view",
      "type": "function"
    },
    {
      "inputs": [
        {
          "internalType": "uint256",
          "name": "",
          "type": "uint256"
        }
      ],
      "name": "orders",
      "outputs": [
        {
          "internalType": "uint256",
          "name": "id",
          "type": "uint256"
        },
        {
          "internalType": "address",
          "name": "creator",
          "type": "address"
        },
        {
          "internalType": "address",
          "name": "tokenToSell",
          "type": "address"
        },
        {
          "internalType": "address",
          "name": "tokenToBuy",
          "type": "address"
        },
        {
          "internalType": "uint256",
          "name": "sellAmount",
          "type": "uint256"
        },
        {
          "internalType": "uint256",
          "name": "buyAmount",
          "type": "uint256"
        },
        {
          "internalType": "bool",
          "name": "active",
          "type": "bool"
        }
      ],
      "stateMutability": "view",
      "type": "function"
    },
    {
      "inputs": [],
      "name": "owner",
      "outputs": [
        {
          "internalType": "address",
          "name": "",
          "type": "address"
        }
      ],
      "stateMutability": "view",
      "type": "function"
    },
    {
      "inputs": [],
      "name": "renounceOwnership",
      "outputs": [],
      "stateMutability": "nonpayable",
      "type": "function"
    },
    {
      "inputs": [
        {
          "internalType": "address",
          "name": "_tradeContract",
          "type": "address"
        }
      ],
      "name": "setTradeContract",
      "outputs": [],
      "stateMutability": "nonpayable",
      "type": "function"
    },
    {
      "inputs": [],
      "name": "tokenManager",
      "outputs": [
        {
          "internalType": "contract TokenManager",
          "name": "",
          "type": "address"
        }
      ],
      "stateMutability": "view",
      "type": "function"
    },
    {
      "inputs": [],
      "name": "tradeContract",
      "outputs": [
        {
          "internalType": "address",
          "name": "",
          "type": "address"
        }
      ],
      "stateMutability": "view",
      "type": "function"
    },
    {
      "inputs": [
        {
          "internalType": "address",
          "name": "newOwner",
          "type": "address"
        }
      ],
      "name": "transferOwnership",
      "outputs": [],
      "stateMutability": "nonpayable",
      "type": "function"
    }
  ],
  "bytecode": "0x60806040523480156200001157600080fd5b5060405162001d8438038062001d848339818101604052810190620000379190620002b1565b336001600081905550600073ffffffffffffffffffffffffffffffffffffffff168173ffffffffffffffffffffffffffffffffffffffff1603620000b55760006040517f1e4fbdf7000000000000000000000000000000000000000000000000000000008152600401620000ac9190620002f4565b60405180910390fd5b620000c6816200018160201b60201c565b50600073ffffffffffffffffffffffffffffffffffffffff168173ffffffffffffffffffffffffffffffffffffffff160362000139576040517f08c379a0000000000000000000000000000000000000000000000000000000008152600401620001309062000372565b60405180910390fd5b80600260006101000a81548173ffffffffffffffffffffffffffffffffffffffff021916908373ffffffffffffffffffffffffffffffffffffffff1602179055505062000394565b6000600160009054906101000a900473ffffffffffffffffffffffffffffffffffffffff16905081600160006101000a81548173ffffffffffffffffffffffffffffffffffffffff021916908373ffffffffffffffffffffffffffffffffffffffff1602179055508173ffffffffffffffffffffffffffffffffffffffff168173ffffffffffffffffffffffffffffffffffffffff167f8be0079c531659141344cd1fd0a4f28419497f9722a3daafe3b4186f6b6457e060405160405180910390a35050565b600080fd5b600073ffffffffffffffffffffffffffffffffffffffff82169050919050565b600062000279826200024c565b9050919050565b6200028b816200026c565b81146200029757600080fd5b50565b600081519050620002ab8162000280565b92915050565b600060208284031215620002ca57620002c962000247565b5b6000620002da848285016200029a565b91505092915050565b620002ee816200026c565b82525050565b60006020820190506200030b6000830184620002e3565b92915050565b600082825260208201905092915050565b7f496e76616c696420546f6b656e4d616e61676572206164647265737300000000600082015250565b60006200035a601c8362000311565b9150620003678262000322565b602082019050919050565b600060208201905081810360008301526200038d816200034b565b9050919050565b6119e080620003a46000396000f3fe608060405234801561001057600080fd5b50600436106100b45760003560e01c80638da5cb5b116100715780638da5cb5b14610151578063a85c38ef1461016f578063b789bf52146101a5578063f2fde38b146101c3578063fe879918146101df578063ffa640d81461020f576100b4565b8063021261f2146100b95780632a709b14146100d5578063514fcac7146100f3578063715018a61461010f578063895a205514610119578063896aa97a14610135575b600080fd5b6100d360048036038101906100ce91906110e3565b61022d565b005b6100dd6102b6565b6040516100ea919061118f565b60405180910390f35b61010d600480360381019061010891906110e3565b6102dc565b005b610117610543565b005b610133600480360381019061012e91906110e3565b610557565b005b61014f600480360381019061014a91906111e8565b610717565b005b6101596107d2565b6040516101669190611224565b60405180910390f35b610189600480360381019061018491906110e3565b6107fc565b60405161019c9796959493929190611269565b60405180910390f35b6101ad6108ab565b6040516101ba91906112d8565b60405180910390f35b6101dd60048036038101906101d891906111e8565b6108b1565b005b6101f960048036038101906101f491906112f3565b610937565b60405161020691906112d8565b60405180910390f35b610217610edd565b6040516102249190611224565b60405180910390f35b60006004600083815260200190815260200160002090508060060160009054906101000a900460ff16610295576040517f08c379a000000000000000000000000000000000000000000000000000000000815260040161028c906113b7565b60405180910390fd5b60008160060160006101000a81548160ff0219169083151502179055505050565b600260009054906101000a900473ffffffffffffffffffffffffffffffffffffffff1681565b6102e4610f03565b60006004600083815260200190815260200160002090508060060160009054906101000a900460ff1661034c576040517f08c379a0000000000000000000000000000000000000000000000000000000008152600401610343906113b7565b60405180910390fd5b3373ffffffffffffffffffffffffffffffffffffffff168160010160009054906101000a900473ffffffffffffffffffffffffffffffffffffffff1673ffffffffffffffffffffffffffffffffffffffff16146103de576040517f08c379a00000000000000000000000000000000000000000000000000000000081526004016103d590611423565b60405180910390fd5b60008160020160009054906101000a900473ffffffffffffffffffffffffffffffffffffffff1690508073ffffffffffffffffffffffffffffffffffffffff1663a9059cbb8360010160009054906101000a900473ffffffffffffffffffffffffffffffffffffffff1684600401546040518363ffffffff1660e01b815260040161046a929190611443565b6020604051808303816000875af1158015610489573d6000803e3d6000fd5b505050506040513d601f19601f820116820180604052508101906104ad9190611498565b6104ec576040517f08c379a00000000000000000000000000000000000000000000000000000000081526004016104e390611511565b60405180910390fd5b60008260060160006101000a81548160ff021916908315150217905550827f61b9399f2f0f32ca39ce8d7be32caed5ec22fe07a6daba3a467ed479ec60658260405160405180910390a25050610540610f49565b50565b61054b610f53565b6105556000610fda565b565b600060046000838152602001908152602001600020905060008160040154116105b5576040517f08c379a00000000000000000000000000000000000000000000000000000000081526004016105ac906115a3565b60405180910390fd5b8060060160009054906101000a900460ff16610606576040517f08c379a00000000000000000000000000000000000000000000000000000000081526004016105fd906113b7565b60405180910390fd5b60008160020160009054906101000a900473ffffffffffffffffffffffffffffffffffffffff1690508073ffffffffffffffffffffffffffffffffffffffff1663a9059cbb600360009054906101000a900473ffffffffffffffffffffffffffffffffffffffff1684600401546040518363ffffffff1660e01b8152600401610690929190611443565b6020604051808303816000875af11580156106af573d6000803e3d6000fd5b505050506040513d601f19601f820116820180604052508101906106d39190611498565b610712576040517f08c379a00000000000000000000000000000000000000000000000000000000081526004016107099061160f565b60405180910390fd5b505050565b61071f610f53565b600073ffffffffffffffffffffffffffffffffffffffff168173ffffffffffffffffffffffffffffffffffffffff160361078e576040517f08c379a00000000000000000000000000000000000000000000000000000000081526004016107859061167b565b60405180910390fd5b80600360006101000a81548173ffffffffffffffffffffffffffffffffffffffff021916908373ffffffffffffffffffffffffffffffffffffffff16021790555050565b6000600160009054906101000a900473ffffffffffffffffffffffffffffffffffffffff16905090565b60046020528060005260406000206000915090508060000154908060010160009054906101000a900473ffffffffffffffffffffffffffffffffffffffff16908060020160009054906101000a900473ffffffffffffffffffffffffffffffffffffffff16908060030160009054906101000a900473ffffffffffffffffffffffffffffffffffffffff16908060040154908060050154908060060160009054906101000a900460ff16905087565b60055481565b6108b9610f53565b600073ffffffffffffffffffffffffffffffffffffffff168173ffffffffffffffffffffffffffffffffffffffff160361092b5760006040517f1e4fbdf70000000000000000000000000000000000000000000000000000000081526004016109229190611224565b60405180910390fd5b61093481610fda565b50565b6000610941610f03565b600073ffffffffffffffffffffffffffffffffffffffff168573ffffffffffffffffffffffffffffffffffffffff16141580156109ab5750600073ffffffffffffffffffffffffffffffffffffffff168473ffffffffffffffffffffffffffffffffffffffff1614155b6109ea576040517f08c379a00000000000000000000000000000000000000000000000000000000081526004016109e1906116e7565b60405180910390fd5b6000831180156109fa5750600082115b610a39576040517f08c379a0000000000000000000000000000000000000000000000000000000008152600401610a3090611753565b60405180910390fd5b600260009054906101000a900473ffffffffffffffffffffffffffffffffffffffff1673ffffffffffffffffffffffffffffffffffffffff166368c4ac26866040518263ffffffff1660e01b8152600401610a949190611224565b602060405180830381865afa158015610ab1573d6000803e3d6000fd5b505050506040513d601f19601f82011682018060405250810190610ad59190611498565b610b14576040517f08c379a0000000000000000000000000000000000000000000000000000000008152600401610b0b906117bf565b60405180910390fd5b600260009054906101000a900473ffffffffffffffffffffffffffffffffffffffff1673ffffffffffffffffffffffffffffffffffffffff166368c4ac26856040518263ffffffff1660e01b8152600401610b6f9190611224565b602060405180830381865afa158015610b8c573d6000803e3d6000fd5b505050506040513d601f19601f82011682018060405250810190610bb09190611498565b610bef576040517f08c379a0000000000000000000000000000000000000000000000000000000008152600401610be69061182b565b60405180910390fd5b60008590508073ffffffffffffffffffffffffffffffffffffffff166323b872dd3330876040518463ffffffff1660e01b8152600401610c319392919061184b565b6020604051808303816000875af1158015610c50573d6000803e3d6000fd5b505050506040513d601f19601f82011682018060405250810190610c749190611498565b610cb3576040517f08c379a0000000000000000000000000000000000000000000000000000000008152600401610caa906118ce565b60405180910390fd5b60056000815480929190610cc69061191d565b9190505550600060055490506040518060e001604052808281526020013373ffffffffffffffffffffffffffffffffffffffff1681526020018873ffffffffffffffffffffffffffffffffffffffff1681526020018773ffffffffffffffffffffffffffffffffffffffff16815260200186815260200185815260200160011515815250600460008381526020019081526020016000206000820151816000015560208201518160010160006101000a81548173ffffffffffffffffffffffffffffffffffffffff021916908373ffffffffffffffffffffffffffffffffffffffff16021790555060408201518160020160006101000a81548173ffffffffffffffffffffffffffffffffffffffff021916908373ffffffffffffffffffffffffffffffffffffffff16021790555060608201518160030160006101000a81548173ffffffffffffffffffffffffffffffffffffffff021916908373ffffffffffffffffffffffffffffffffffffffff1602179055506080820151816004015560a0820151816005015560c08201518160060160006101000a81548160ff0219169083151502179055509050503373ffffffffffffffffffffffffffffffffffffffff16817fa4be1e061958d160de04db54668a64922c36d2765b16644ae91acf127708970e89898989604051610ec09493929190611965565b60405180910390a38092505050610ed5610f49565b949350505050565b600360009054906101000a900473ffffffffffffffffffffffffffffffffffffffff1681565b600260005403610f3f576040517f3ee5aeb500000000000000000000000000000000000000000000000000000000815260040160405180910390fd5b6002600081905550565b6001600081905550565b610f5b6110a0565b73ffffffffffffffffffffffffffffffffffffffff16610f796107d2565b73ffffffffffffffffffffffffffffffffffffffff1614610fd857610f9c6110a0565b6040517f118cdaa7000000000000000000000000000000000000000000000000000000008152600401610fcf9190611224565b60405180910390fd5b565b6000600160009054906101000a900473ffffffffffffffffffffffffffffffffffffffff16905081600160006101000a81548173ffffffffffffffffffffffffffffffffffffffff021916908373ffffffffffffffffffffffffffffffffffffffff1602179055508173ffffffffffffffffffffffffffffffffffffffff168173ffffffffffffffffffffffffffffffffffffffff167f8be0079c531659141344cd1fd0a4f28419497f9722a3daafe3b4186f6b6457e060405160405180910390a35050565b600033905090565b600080fd5b6000819050919050565b6110c0816110ad565b81146110cb57600080fd5b50565b6000813590506110dd816110b7565b92915050565b6000602082840312156110f9576110f86110a8565b5b6000611107848285016110ce565b91505092915050565b600073ffffffffffffffffffffffffffffffffffffffff82169050919050565b6000819050919050565b600061115561115061114b84611110565b611130565b611110565b9050919050565b60006111678261113a565b9050919050565b60006111798261115c565b9050919050565b6111898161116e565b82525050565b60006020820190506111a46000830184611180565b92915050565b60006111b582611110565b9050919050565b6111c5816111aa565b81146111d057600080fd5b50565b6000813590506111e2816111bc565b92915050565b6000602082840312156111fe576111fd6110a8565b5b600061120c848285016111d3565b91505092915050565b61121e816111aa565b82525050565b60006020820190506112396000830184611215565b92915050565b611248816110ad565b82525050565b60008115159050919050565b6112638161124e565b82525050565b600060e08201905061127e600083018a61123f565b61128b6020830189611215565b6112986040830188611215565b6112a56060830187611215565b6112b2608083018661123f565b6112bf60a083018561123f565b6112cc60c083018461125a565b98975050505050505050565b60006020820190506112ed600083018461123f565b92915050565b6000806000806080858703121561130d5761130c6110a8565b5b600061131b878288016111d3565b945050602061132c878288016111d3565b935050604061133d878288016110ce565b925050606061134e878288016110ce565b91505092959194509250565b600082825260208201905092915050565b7f4f72646572206973206e6f742061637469766500000000000000000000000000600082015250565b60006113a160138361135a565b91506113ac8261136b565b602082019050919050565b600060208201905081810360008301526113d081611394565b9050919050565b7f4e6f7420746865206f726465722063726561746f720000000000000000000000600082015250565b600061140d60158361135a565b9150611418826113d7565b602082019050919050565b6000602082019050818103600083015261143c81611400565b9050919050565b60006040820190506114586000830185611215565b611465602083018461123f565b9392505050565b6114758161124e565b811461148057600080fd5b50565b6000815190506114928161146c565b92915050565b6000602082840312156114ae576114ad6110a8565b5b60006114bc84828501611483565b91505092915050565b7f546f6b656e2072657475726e206661696c656400000000000000000000000000600082015250565b60006114fb60138361135a565b9150611506826114c5565b602082019050919050565b6000602082019050818103600083015261152a816114ee565b9050919050565b7f4f7264657220646f6573206e6f74206578697374206f7220686173207a65726f60008201527f20616d6f756e7400000000000000000000000000000000000000000000000000602082015250565b600061158d60278361135a565b915061159882611531565b604082019050919050565b600060208201905081810360008301526115bc81611580565b9050919050565b7f546f6b656e206d6f766520746f205472616465206661696c6564000000000000600082015250565b60006115f9601a8361135a565b9150611604826115c3565b602082019050919050565b60006020820190508181036000830152611628816115ec565b9050919050565b7f496e76616c696420547261646520636f6e747261637420616464726573730000600082015250565b6000611665601e8361135a565b91506116708261162f565b602082019050919050565b6000602082019050818103600083015261169481611658565b9050919050565b7f496e76616c696420746f6b656e20616464726573730000000000000000000000600082015250565b60006116d160158361135a565b91506116dc8261169b565b602082019050919050565b60006020820190508181036000830152611700816116c4565b9050919050565b7f416d6f756e7473206d7573742062652067726561746572207468616e20300000600082015250565b600061173d601e8361135a565b915061174882611707565b602082019050919050565b6000602082019050818103600083015261176c81611730565b9050919050565b7f546f6b656e20746f2073656c6c206e6f7420737570706f727465640000000000600082015250565b60006117a9601b8361135a565b91506117b482611773565b602082019050919050565b600060208201905081810360008301526117d88161179c565b9050919050565b7f546f6b656e20746f20627579206e6f7420737570706f72746564000000000000600082015250565b6000611815601a8361135a565b9150611820826117df565b602082019050919050565b6000602082019050818103600083015261184481611808565b9050919050565b60006060820190506118606000830186611215565b61186d6020830185611215565b61187a604083018461123f565b949350505050565b7f546f6b656e207472616e73666572206661696c65640000000000000000000000600082015250565b60006118b860158361135a565b91506118c382611882565b602082019050919050565b600060208201905081810360008301526118e7816118ab565b9050919050565b7f4e487b7100000000000000000000000000000000000000000000000000000000600052601160045260246000fd5b6000611928826110ad565b91507fffffffffffffffffffffffffffffffffffffffffffffffffffffffffffffffff820361195a576119596118ee565b5b600182019050919050565b600060808201905061197a6000830187611215565b6119876020830186611215565b611994604083018561123f565b6119a1606083018461123f565b9594505050505056fea264697066735822122007fb12dd29208c3fb09ca0e3dc3948a2734d44d17afbbe8533e1881d7456d77a64736f6c63430008140033",
  "linkReferences": {},
  "deployedLinkReferences": {}
}