{
  "_format": "hh-sol-artifact-1",
  "contractName": "Trade",
  "sourceName": "contracts/Trade.sol",
  "abi": [
    {
      "inputs": [
        {
          "internalType": "address",
          "name": "_orderBookAddress",
          "type": "address"
        }
      ],
      "stateMutability": "nonpayable",
      "type": "constructor"
    },
    {
      "inputs": [],
      "name": "ReentrancyGuardReentrantCall",
      "type": "error"
    },
    {
      "anonymous": false,
      "inputs": [
        {
          "indexed": false,
          "internalType": "uint256",
          "name": "orderId",
          "type": "uint256"
        },
        {
          "indexed": false,
          "internalType": "address",
          "name": "executor",
          "type": "address"
        },
        {
          "indexed": false,
          "internalType": "address",
          "name": "creator",
          "type": "address"
        },
        {
          "indexed": false,
          "internalType": "uint256",
          "name": "sellAmount",
          "type": "uint256"
        },
        {
          "indexed": false,
          "internalType": "uint256",
          "name": "buyAmount",
          "type": "uint256"
        }
      ],
      "name": "OrderExecuted",
      "type": "event"
    },
    {
      "inputs": [
        {
          "internalType": "uint256",
          "name": "_orderId",
          "type": "uint256"
        }
      ],
      "name": "executeOrder",
      "outputs": [],
      "stateMutability": "nonpayable",
      "type": "function"
    },
    {
      "inputs": [],
      "name": "orderBook",
      "outputs": [
        {
          "internalType": "contract OrderBook",
          "name": "",
          "type": "address"
        }
      ],
      "stateMutability": "view",
      "type": "function"
    }
  ],
  "bytecode": "0x60806040523480156200001157600080fd5b5060405162000cac38038062000cac833981810160405281019062000037919062000163565b6001600081905550600073ffffffffffffffffffffffffffffffffffffffff168173ffffffffffffffffffffffffffffffffffffffff1603620000b1576040517f08c379a0000000000000000000000000000000000000000000000000000000008152600401620000a890620001f6565b60405180910390fd5b80600160006101000a81548173ffffffffffffffffffffffffffffffffffffffff021916908373ffffffffffffffffffffffffffffffffffffffff1602179055505062000218565b600080fd5b600073ffffffffffffffffffffffffffffffffffffffff82169050919050565b60006200012b82620000fe565b9050919050565b6200013d816200011e565b81146200014957600080fd5b50565b6000815190506200015d8162000132565b92915050565b6000602082840312156200017c576200017b620000f9565b5b60006200018c848285016200014c565b91505092915050565b600082825260208201905092915050565b7f496e76616c6964204f72646572426f6f6b206164647265737300000000000000600082015250565b6000620001de60198362000195565b9150620001eb82620001a6565b602082019050919050565b600060208201905081810360008301526200021181620001cf565b9050919050565b610a8480620002286000396000f3fe608060405234801561001057600080fd5b50600436106100365760003560e01c8063776af5ba1461003b57806394f6113414610059575b600080fd5b610043610075565b60405161005091906105c4565b60405180910390f35b610073600480360381019061006e919061061a565b61009b565b005b600160009054906101000a900473ffffffffffffffffffffffffffffffffffffffff1681565b6100a36104f5565b600080600080600080600160009054906101000a900473ffffffffffffffffffffffffffffffffffffffff1673ffffffffffffffffffffffffffffffffffffffff1663a85c38ef886040518263ffffffff1660e01b81526004016101079190610656565b60e060405180830381865afa158015610124573d6000803e3d6000fd5b505050506040513d601f19601f8201168201806040525081019061014891906106fc565b9650965096509650965096505080610195576040517f08c379a000000000000000000000000000000000000000000000000000000000815260040161018c906107fb565b60405180910390fd5b3373ffffffffffffffffffffffffffffffffffffffff168673ffffffffffffffffffffffffffffffffffffffff1603610203576040517f08c379a00000000000000000000000000000000000000000000000000000000081526004016101fa90610867565b60405180910390fd5b600084905060008690508173ffffffffffffffffffffffffffffffffffffffff166323b872dd338a876040518463ffffffff1660e01b815260040161024a93929190610896565b6020604051808303816000875af1158015610269573d6000803e3d6000fd5b505050506040513d601f19601f8201168201806040525081019061028d91906108cd565b6102cc576040517f08c379a00000000000000000000000000000000000000000000000000000000081526004016102c390610946565b60405180910390fd5b600160009054906101000a900473ffffffffffffffffffffffffffffffffffffffff1673ffffffffffffffffffffffffffffffffffffffff1663895a20558a6040518263ffffffff1660e01b81526004016103279190610656565b600060405180830381600087803b15801561034157600080fd5b505af1158015610355573d6000803e3d6000fd5b505050508073ffffffffffffffffffffffffffffffffffffffff1663a9059cbb33876040518363ffffffff1660e01b8152600401610394929190610966565b6020604051808303816000875af11580156103b3573d6000803e3d6000fd5b505050506040513d601f19601f820116820180604052508101906103d791906108cd565b610416576040517f08c379a000000000000000000000000000000000000000000000000000000000815260040161040d906109db565b60405180910390fd5b600160009054906101000a900473ffffffffffffffffffffffffffffffffffffffff1673ffffffffffffffffffffffffffffffffffffffff1663021261f28a6040518263ffffffff1660e01b81526004016104719190610656565b600060405180830381600087803b15801561048b57600080fd5b505af115801561049f573d6000803e3d6000fd5b505050507fd7a87d0519b9db74efbaf0a5663d18f1aafacf8b1c4fc1c962d727414662a09289338a88886040516104da9594939291906109fb565b60405180910390a150505050505050506104f261053b565b50565b600260005403610531576040517f3ee5aeb500000000000000000000000000000000000000000000000000000000815260040160405180910390fd5b6002600081905550565b6001600081905550565b600073ffffffffffffffffffffffffffffffffffffffff82169050919050565b6000819050919050565b600061058a61058561058084610545565b610565565b610545565b9050919050565b600061059c8261056f565b9050919050565b60006105ae82610591565b9050919050565b6105be816105a3565b82525050565b60006020820190506105d960008301846105b5565b92915050565b600080fd5b6000819050919050565b6105f7816105e4565b811461060257600080fd5b50565b600081359050610614816105ee565b92915050565b6000602082840312156106305761062f6105df565b5b600061063e84828501610605565b91505092915050565b610650816105e4565b82525050565b600060208201905061066b6000830184610647565b92915050565b600081519050610680816105ee565b92915050565b600061069182610545565b9050919050565b6106a181610686565b81146106ac57600080fd5b50565b6000815190506106be81610698565b92915050565b60008115159050919050565b6106d9816106c4565b81146106e457600080fd5b50565b6000815190506106f6816106d0565b92915050565b600080600080600080600060e0888a03121561071b5761071a6105df565b5b60006107298a828b01610671565b975050602061073a8a828b016106af565b965050604061074b8a828b016106af565b955050606061075c8a828b016106af565b945050608061076d8a828b01610671565b93505060a061077e8a828b01610671565b92505060c061078f8a828b016106e7565b91505092959891949750929550565b600082825260208201905092915050565b7f4f72646572206973206e6f742061637469766500000000000000000000000000600082015250565b60006107e560138361079e565b91506107f0826107af565b602082019050919050565b60006020820190508181036000830152610814816107d8565b9050919050565b7f43616e6e6f74206578656375746520796f7572206f776e206f72646572000000600082015250565b6000610851601d8361079e565b915061085c8261081b565b602082019050919050565b6000602082019050818103600083015261088081610844565b9050919050565b61089081610686565b82525050565b60006060820190506108ab6000830186610887565b6108b86020830185610887565b6108c56040830184610647565b949350505050565b6000602082840312156108e3576108e26105df565b5b60006108f1848285016106e7565b91505092915050565b7f546f6b656e20627579207472616e73666572206661696c656400000000000000600082015250565b600061093060198361079e565b915061093b826108fa565b602082019050919050565b6000602082019050818103600083015261095f81610923565b9050919050565b600060408201905061097b6000830185610887565b6109886020830184610647565b9392505050565b7f546f6b656e2073656c6c207472616e73666572206661696c6564000000000000600082015250565b60006109c5601a8361079e565b91506109d08261098f565b602082019050919050565b600060208201905081810360008301526109f4816109b8565b9050919050565b600060a082019050610a106000830188610647565b610a1d6020830187610887565b610a2a6040830186610887565b610a376060830185610647565b610a446080830184610647565b969550505050505056fea2646970667358221220b2c976d1a082b80eda61481a374a4ff60951891df56728e083340cc7c407b67964736f6c63430008140033",
  "linkReferences": {},
  "deployedLinkReferences": {}
}